{
  "address": "0x233651332DC822E98Fa42F71FaEFf5a927E737d1",
  "abi": [
    {
      "inputs": [
        {
          "internalType": "address",
          "name": "vftCoordinatorV2",
          "type": "address"
        },
        {
          "internalType": "uint64",
          "name": "subscriptionId",
          "type": "uint64"
        },
        {
          "internalType": "bytes32",
          "name": "gaslane",
          "type": "bytes32"
        },
        {
          "internalType": "uint32",
          "name": "callbackGasLimit",
          "type": "uint32"
        },
        {
          "internalType": "string[3]",
          "name": "dogTokenUris",
          "type": "string[3]"
        },
        {
          "internalType": "uint256",
          "name": "mintFee",
          "type": "uint256"
        }
      ],
      "stateMutability": "nonpayable",
      "type": "constructor"
    },
    {
      "inputs": [
        {
          "internalType": "address",
          "name": "have",
          "type": "address"
        },
        {
          "internalType": "address",
          "name": "want",
          "type": "address"
        }
      ],
      "name": "OnlyCoordinatorCanFulfill",
      "type": "error"
    },
    {
      "inputs": [],
      "name": "RandomIpfsNft__NeedMoreETHSent",
      "type": "error"
    },
    {
      "inputs": [],
      "name": "RandomIpfsNft__RangeOutofBounds",
      "type": "error"
    },
    {
      "inputs": [],
      "name": "RandomIpfsNft__TransferFailed",
      "type": "error"
    },
    {
      "anonymous": false,
      "inputs": [
        {
          "indexed": true,
          "internalType": "address",
          "name": "owner",
          "type": "address"
        },
        {
          "indexed": true,
          "internalType": "address",
          "name": "approved",
          "type": "address"
        },
        {
          "indexed": true,
          "internalType": "uint256",
          "name": "tokenId",
          "type": "uint256"
        }
      ],
      "name": "Approval",
      "type": "event"
    },
    {
      "anonymous": false,
      "inputs": [
        {
          "indexed": true,
          "internalType": "address",
          "name": "owner",
          "type": "address"
        },
        {
          "indexed": true,
          "internalType": "address",
          "name": "operator",
          "type": "address"
        },
        {
          "indexed": false,
          "internalType": "bool",
          "name": "approved",
          "type": "bool"
        }
      ],
      "name": "ApprovalForAll",
      "type": "event"
    },
    {
      "anonymous": false,
      "inputs": [
        {
          "indexed": false,
          "internalType": "enum RandomIpfsNft.Breed",
          "name": "dogBreed",
          "type": "uint8"
        },
        {
          "indexed": false,
          "internalType": "address",
          "name": "minter",
          "type": "address"
        }
      ],
      "name": "NftMinted",
      "type": "event"
    },
    {
      "anonymous": false,
      "inputs": [
        {
          "indexed": true,
          "internalType": "uint256",
          "name": "requestId",
          "type": "uint256"
        },
        {
          "indexed": false,
          "internalType": "address",
          "name": "requester",
          "type": "address"
        }
      ],
      "name": "NftRequested",
      "type": "event"
    },
    {
      "anonymous": false,
      "inputs": [
        {
          "indexed": true,
          "internalType": "address",
          "name": "previousOwner",
          "type": "address"
        },
        {
          "indexed": true,
          "internalType": "address",
          "name": "newOwner",
          "type": "address"
        }
      ],
      "name": "OwnershipTransferred",
      "type": "event"
    },
    {
      "anonymous": false,
      "inputs": [
        {
          "indexed": true,
          "internalType": "address",
          "name": "from",
          "type": "address"
        },
        {
          "indexed": true,
          "internalType": "address",
          "name": "to",
          "type": "address"
        },
        {
          "indexed": true,
          "internalType": "uint256",
          "name": "tokenId",
          "type": "uint256"
        }
      ],
      "name": "Transfer",
      "type": "event"
    },
    {
      "inputs": [
        {
          "internalType": "address",
          "name": "to",
          "type": "address"
        },
        {
          "internalType": "uint256",
          "name": "tokenId",
          "type": "uint256"
        }
      ],
      "name": "approve",
      "outputs": [],
      "stateMutability": "nonpayable",
      "type": "function"
    },
    {
      "inputs": [
        {
          "internalType": "address",
          "name": "owner",
          "type": "address"
        }
      ],
      "name": "balanceOf",
      "outputs": [
        {
          "internalType": "uint256",
          "name": "",
          "type": "uint256"
        }
      ],
      "stateMutability": "view",
      "type": "function"
    },
    {
      "inputs": [
        {
          "internalType": "uint256",
          "name": "tokenId",
          "type": "uint256"
        }
      ],
      "name": "getApproved",
      "outputs": [
        {
          "internalType": "address",
          "name": "",
          "type": "address"
        }
      ],
      "stateMutability": "view",
      "type": "function"
    },
    {
      "inputs": [
        {
          "internalType": "uint256",
          "name": "moddedRng",
          "type": "uint256"
        }
      ],
      "name": "getBreedFromModdedRng",
      "outputs": [
        {
          "internalType": "enum RandomIpfsNft.Breed",
          "name": "",
          "type": "uint8"
        }
      ],
      "stateMutability": "pure",
      "type": "function"
    },
    {
      "inputs": [],
      "name": "getChanceArray",
      "outputs": [
        {
          "internalType": "uint256[3]",
          "name": "",
          "type": "uint256[3]"
        }
      ],
      "stateMutability": "pure",
      "type": "function"
    },
    {
      "inputs": [
        {
          "internalType": "uint256",
          "name": "index",
          "type": "uint256"
        }
      ],
      "name": "getDogTokenUris",
      "outputs": [
        {
          "internalType": "string",
          "name": "",
          "type": "string"
        }
      ],
      "stateMutability": "view",
      "type": "function"
    },
    {
      "inputs": [],
      "name": "getMintFee",
      "outputs": [
        {
          "internalType": "uint256",
          "name": "",
          "type": "uint256"
        }
      ],
      "stateMutability": "view",
      "type": "function"
    },
    {
      "inputs": [],
      "name": "getTokenCounter",
      "outputs": [
        {
          "internalType": "uint256",
          "name": "",
          "type": "uint256"
        }
      ],
      "stateMutability": "view",
      "type": "function"
    },
    {
      "inputs": [
        {
          "internalType": "address",
          "name": "owner",
          "type": "address"
        },
        {
          "internalType": "address",
          "name": "operator",
          "type": "address"
        }
      ],
      "name": "isApprovedForAll",
      "outputs": [
        {
          "internalType": "bool",
          "name": "",
          "type": "bool"
        }
      ],
      "stateMutability": "view",
      "type": "function"
    },
    {
      "inputs": [],
      "name": "name",
      "outputs": [
        {
          "internalType": "string",
          "name": "",
          "type": "string"
        }
      ],
      "stateMutability": "view",
      "type": "function"
    },
    {
      "inputs": [],
      "name": "owner",
      "outputs": [
        {
          "internalType": "address",
          "name": "",
          "type": "address"
        }
      ],
      "stateMutability": "view",
      "type": "function"
    },
    {
      "inputs": [
        {
          "internalType": "uint256",
          "name": "tokenId",
          "type": "uint256"
        }
      ],
      "name": "ownerOf",
      "outputs": [
        {
          "internalType": "address",
          "name": "",
          "type": "address"
        }
      ],
      "stateMutability": "view",
      "type": "function"
    },
    {
      "inputs": [
        {
          "internalType": "uint256",
          "name": "requestId",
          "type": "uint256"
        },
        {
          "internalType": "uint256[]",
          "name": "randomWords",
          "type": "uint256[]"
        }
      ],
      "name": "rawFulfillRandomWords",
      "outputs": [],
      "stateMutability": "nonpayable",
      "type": "function"
    },
    {
      "inputs": [],
      "name": "renounceOwnership",
      "outputs": [],
      "stateMutability": "nonpayable",
      "type": "function"
    },
    {
      "inputs": [],
      "name": "requestNft",
      "outputs": [
        {
          "internalType": "uint256",
          "name": "requestId",
          "type": "uint256"
        }
      ],
      "stateMutability": "payable",
      "type": "function"
    },
    {
      "inputs": [
        {
          "internalType": "uint256",
          "name": "",
          "type": "uint256"
        }
      ],
      "name": "s_requestIdToSender",
      "outputs": [
        {
          "internalType": "address",
          "name": "",
          "type": "address"
        }
      ],
      "stateMutability": "view",
      "type": "function"
    },
    {
      "inputs": [],
      "name": "s_tokenCounter",
      "outputs": [
        {
          "internalType": "uint256",
          "name": "",
          "type": "uint256"
        }
      ],
      "stateMutability": "view",
      "type": "function"
    },
    {
      "inputs": [
        {
          "internalType": "address",
          "name": "from",
          "type": "address"
        },
        {
          "internalType": "address",
          "name": "to",
          "type": "address"
        },
        {
          "internalType": "uint256",
          "name": "tokenId",
          "type": "uint256"
        }
      ],
      "name": "safeTransferFrom",
      "outputs": [],
      "stateMutability": "nonpayable",
      "type": "function"
    },
    {
      "inputs": [
        {
          "internalType": "address",
          "name": "from",
          "type": "address"
        },
        {
          "internalType": "address",
          "name": "to",
          "type": "address"
        },
        {
          "internalType": "uint256",
          "name": "tokenId",
          "type": "uint256"
        },
        {
          "internalType": "bytes",
          "name": "data",
          "type": "bytes"
        }
      ],
      "name": "safeTransferFrom",
      "outputs": [],
      "stateMutability": "nonpayable",
      "type": "function"
    },
    {
      "inputs": [
        {
          "internalType": "address",
          "name": "operator",
          "type": "address"
        },
        {
          "internalType": "bool",
          "name": "approved",
          "type": "bool"
        }
      ],
      "name": "setApprovalForAll",
      "outputs": [],
      "stateMutability": "nonpayable",
      "type": "function"
    },
    {
      "inputs": [
        {
          "internalType": "bytes4",
          "name": "interfaceId",
          "type": "bytes4"
        }
      ],
      "name": "supportsInterface",
      "outputs": [
        {
          "internalType": "bool",
          "name": "",
          "type": "bool"
        }
      ],
      "stateMutability": "view",
      "type": "function"
    },
    {
      "inputs": [],
      "name": "symbol",
      "outputs": [
        {
          "internalType": "string",
          "name": "",
          "type": "string"
        }
      ],
      "stateMutability": "view",
      "type": "function"
    },
    {
      "inputs": [
        {
          "internalType": "uint256",
          "name": "tokenId",
          "type": "uint256"
        }
      ],
      "name": "tokenURI",
      "outputs": [
        {
          "internalType": "string",
          "name": "",
          "type": "string"
        }
      ],
      "stateMutability": "view",
      "type": "function"
    },
    {
      "inputs": [
        {
          "internalType": "address",
          "name": "from",
          "type": "address"
        },
        {
          "internalType": "address",
          "name": "to",
          "type": "address"
        },
        {
          "internalType": "uint256",
          "name": "tokenId",
          "type": "uint256"
        }
      ],
      "name": "transferFrom",
      "outputs": [],
      "stateMutability": "nonpayable",
      "type": "function"
    },
    {
      "inputs": [
        {
          "internalType": "address",
          "name": "newOwner",
          "type": "address"
        }
      ],
      "name": "transferOwnership",
      "outputs": [],
      "stateMutability": "nonpayable",
      "type": "function"
    },
    {
      "inputs": [],
      "name": "withdraw",
      "outputs": [],
      "stateMutability": "nonpayable",
      "type": "function"
    }
  ],
  "transactionHash": "0xe82febb088df92db9fe94d1d64741f981c949f1b2ee22b82d5ff5d02d215ed22",
  "args": [
    "0x2Ca8E0C643bDe4C2E08ab1fA0da3401AdAD7734D",
    "762",
    "0x79d3d8832d904592c0bf9818b621522c988bb8b0c05cdc3b15aea1b6e8db0c15",
    "500000",
    [
      "ipfs://QmaaCt9KEK5Us4xitmzBbVRqpwyivaeLJfewAi9Yd6PxAS",
      "ipfs://QmQfSnM5jAt2JHDAynh9nvrcZNPHEUiB4fQ5wgWEq3N9jv",
      "ipfs://Qmf6vFWz4wFb6fy3fBHDkakEhU6JKiVmTvZrRgy94HKqmC"
    ],
    "1000000000000000000"
  ],
  "numDeployments": 1,
  "solcInputHash": "c4b38122a97f9cd4e5402f008b885517",
  "bytecode": "0x6101206040523480156200001257600080fd5b50604051620042b0380380620042b0833981810160405281019062000038919062000809565b6040518060400160405280600f81526020017f52616e646f6d2049504653204e465400000000000000000000000000000000008152506040518060400160405280600381526020017f52494e0000000000000000000000000000000000000000000000000000000000815250878073ffffffffffffffffffffffffffffffffffffffff1660808173ffffffffffffffffffffffffffffffffffffffff1660601b81525050508160009080519060200190620000f59291906200029c565b5080600190805190602001906200010e9291906200029c565b5050506200013162000125620001ce60201b60201c565b620001d660201b60201c565b8573ffffffffffffffffffffffffffffffffffffffff1660a08173ffffffffffffffffffffffffffffffffffffffff1660601b815250508467ffffffffffffffff1660c08167ffffffffffffffff1660c01b815250508360e081815250508263ffffffff166101008163ffffffff1660e01b8152505081600a906003620001ba9291906200032d565b5080600b8190555050505050505062000929565b600033905090565b6000600760009054906101000a900473ffffffffffffffffffffffffffffffffffffffff16905081600760006101000a81548173ffffffffffffffffffffffffffffffffffffffff021916908373ffffffffffffffffffffffffffffffffffffffff1602179055508173ffffffffffffffffffffffffffffffffffffffff168173ffffffffffffffffffffffffffffffffffffffff167f8be0079c531659141344cd1fd0a4f28419497f9722a3daafe3b4186f6b6457e060405160405180910390a35050565b828054620002aa90620008f3565b90600052602060002090601f016020900481019282620002ce57600085556200031a565b82601f10620002e957805160ff19168380011785556200031a565b828001600101855582156200031a579182015b8281111562000319578251825591602001919060010190620002fc565b5b50905062000329919062000394565b5090565b82805482825590600052602060002090810192821562000381579160200282015b82811115620003805782518290805190602001906200036f9291906200029c565b50916020019190600101906200034e565b5b509050620003909190620003b3565b5090565b5b80821115620003af57600081600090555060010162000395565b5090565b5b80821115620003d75760008181620003cd9190620003db565b50600101620003b4565b5090565b508054620003e990620008f3565b6000825580601f10620003fd57506200041e565b601f0160209004906000526020600020908101906200041d919062000394565b5b50565b6000604051905090565b600080fd5b600080fd5b600073ffffffffffffffffffffffffffffffffffffffff82169050919050565b6000620004628262000435565b9050919050565b620004748162000455565b81146200048057600080fd5b50565b600081519050620004948162000469565b92915050565b600067ffffffffffffffff82169050919050565b620004b9816200049a565b8114620004c557600080fd5b50565b600081519050620004d981620004ae565b92915050565b6000819050919050565b620004f481620004df565b81146200050057600080fd5b50565b6000815190506200051481620004e9565b92915050565b600063ffffffff82169050919050565b62000535816200051a565b81146200054157600080fd5b50565b60008151905062000555816200052a565b92915050565b600080fd5b6000601f19601f8301169050919050565b7f4e487b7100000000000000000000000000000000000000000000000000000000600052604160045260246000fd5b620005ab8262000560565b810181811067ffffffffffffffff82111715620005cd57620005cc62000571565b5b80604052505050565b6000620005e262000421565b9050620005f08282620005a0565b919050565b600067ffffffffffffffff82111562000613576200061262000571565b5b602082029050919050565b600080fd5b600080fd5b600067ffffffffffffffff82111562000646576200064562000571565b5b620006518262000560565b9050602081019050919050565b60005b838110156200067e57808201518184015260208101905062000661565b838111156200068e576000848401525b50505050565b6000620006ab620006a58462000628565b620005d6565b905082815260208101848484011115620006ca57620006c962000623565b5b620006d78482856200065e565b509392505050565b600082601f830112620006f757620006f66200055b565b5b81516200070984826020860162000694565b91505092915050565b6000620007296200072384620005f5565b620005d6565b905080602084028301858111156200074657620007456200061e565b5b835b818110156200079457805167ffffffffffffffff8111156200076f576200076e6200055b565b5b8086016200077e8982620006df565b8552602085019450505060208101905062000748565b5050509392505050565b600082601f830112620007b657620007b56200055b565b5b6003620007c584828562000712565b91505092915050565b6000819050919050565b620007e381620007ce565b8114620007ef57600080fd5b50565b6000815190506200080381620007d8565b92915050565b60008060008060008060c087890312156200082957620008286200042b565b5b60006200083989828a0162000483565b96505060206200084c89828a01620004c8565b95505060406200085f89828a0162000503565b94505060606200087289828a0162000544565b935050608087015167ffffffffffffffff81111562000896576200089562000430565b5b620008a489828a016200079e565b92505060a0620008b789828a01620007f2565b9150509295509295509295565b7f4e487b7100000000000000000000000000000000000000000000000000000000600052602260045260246000fd5b600060028204905060018216806200090c57607f821691505b60208210811415620009235762000922620008c4565b5b50919050565b60805160601c60a05160601c60c05160c01c60e0516101005160e01c61392f62000981600039600061100d01526000610fc901526000610fea01526000610f8d01526000818161091d0152610971015261392f6000f3fe6080604052600436106101815760003560e01c806370a08231116100d1578063a36f573b1161008a578063b88d4fde11610064578063b88d4fde14610577578063c87b56dd146105a0578063e985e9c5146105dd578063f2fde38b1461061a57610181565b8063a36f573b146104df578063a51cccf31461051c578063aa1524911461055957610181565b806370a08231146103e1578063715018a61461041e5780637a5caab3146104355780638da5cb5b1461046057806395d89b411461048b578063a22cb465146104b657610181565b806323b872dd1161013e57806342842e0e1161011857806342842e0e146103255780635dacf5f41461034e5780636352211e146103795780636e02007d146103b657610181565b806323b872dd146102a85780633af25975146102d15780633ccfd60b1461030e57610181565b806301ffc9a71461018657806306fdde03146101c3578063081812fc146101ee578063095ea7b31461022b5780630b21a83b146102545780631fe543e31461027f575b600080fd5b34801561019257600080fd5b506101ad60048036038101906101a891906124dd565b610643565b6040516101ba9190612525565b60405180910390f35b3480156101cf57600080fd5b506101d8610725565b6040516101e591906125d9565b60405180910390f35b3480156101fa57600080fd5b5061021560048036038101906102109190612631565b6107b7565b604051610222919061269f565b60405180910390f35b34801561023757600080fd5b50610252600480360381019061024d91906126e6565b6107fd565b005b34801561026057600080fd5b50610269610915565b6040516102769190612735565b60405180910390f35b34801561028b57600080fd5b506102a660048036038101906102a19190612898565b61091b565b005b3480156102b457600080fd5b506102cf60048036038101906102ca91906128f4565b6109db565b005b3480156102dd57600080fd5b506102f860048036038101906102f39190612631565b610a3b565b60405161030591906125d9565b60405180910390f35b34801561031a57600080fd5b50610323610aeb565b005b34801561033157600080fd5b5061034c600480360381019061034791906128f4565b610b9f565b005b34801561035a57600080fd5b50610363610bbf565b60405161037091906129f2565b60405180910390f35b34801561038557600080fd5b506103a0600480360381019061039b9190612631565b610bea565b6040516103ad919061269f565b60405180910390f35b3480156103c257600080fd5b506103cb610c9c565b6040516103d89190612735565b60405180910390f35b3480156103ed57600080fd5b5061040860048036038101906104039190612a0d565b610ca6565b6040516104159190612735565b60405180910390f35b34801561042a57600080fd5b50610433610d5e565b005b34801561044157600080fd5b5061044a610d72565b6040516104579190612735565b60405180910390f35b34801561046c57600080fd5b50610475610d7c565b604051610482919061269f565b60405180910390f35b34801561049757600080fd5b506104a0610da6565b6040516104ad91906125d9565b60405180910390f35b3480156104c257600080fd5b506104dd60048036038101906104d89190612a66565b610e38565b005b3480156104eb57600080fd5b5061050660048036038101906105019190612631565b610e4e565b604051610513919061269f565b60405180910390f35b34801561052857600080fd5b50610543600480360381019061053e9190612631565b610e81565b6040516105509190612b1d565b60405180910390f35b610561610f4d565b60405161056e9190612735565b60405180910390f35b34801561058357600080fd5b5061059e60048036038101906105999190612bed565b61112f565b005b3480156105ac57600080fd5b506105c760048036038101906105c29190612631565b611191565b6040516105d491906125d9565b60405180910390f35b3480156105e957600080fd5b5061060460048036038101906105ff9190612c70565b6112a4565b6040516106119190612525565b60405180910390f35b34801561062657600080fd5b50610641600480360381019061063c9190612a0d565b611338565b005b60007f80ac58cd000000000000000000000000000000000000000000000000000000007bffffffffffffffffffffffffffffffffffffffffffffffffffffffff1916827bffffffffffffffffffffffffffffffffffffffffffffffffffffffff1916148061070e57507f5b5e139f000000000000000000000000000000000000000000000000000000007bffffffffffffffffffffffffffffffffffffffffffffffffffffffff1916827bffffffffffffffffffffffffffffffffffffffffffffffffffffffff1916145b8061071e575061071d826113bc565b5b9050919050565b60606000805461073490612cdf565b80601f016020809104026020016040519081016040528092919081815260200182805461076090612cdf565b80156107ad5780601f10610782576101008083540402835291602001916107ad565b820191906000526020600020905b81548152906001019060200180831161079057829003601f168201915b5050505050905090565b60006107c282611426565b6004600083815260200190815260200160002060009054906101000a900473ffffffffffffffffffffffffffffffffffffffff169050919050565b600061080882610bea565b90508073ffffffffffffffffffffffffffffffffffffffff168373ffffffffffffffffffffffffffffffffffffffff161415610879576040517f08c379a000000000000000000000000000000000000000000000000000000000815260040161087090612d83565b60405180910390fd5b8073ffffffffffffffffffffffffffffffffffffffff16610898611471565b73ffffffffffffffffffffffffffffffffffffffff1614806108c757506108c6816108c1611471565b6112a4565b5b610906576040517f08c379a00000000000000000000000000000000000000000000000000000000081526004016108fd90612e15565b60405180910390fd5b6109108383611479565b505050565b60095481565b7f000000000000000000000000000000000000000000000000000000000000000073ffffffffffffffffffffffffffffffffffffffff163373ffffffffffffffffffffffffffffffffffffffff16146109cd57337f00000000000000000000000000000000000000000000000000000000000000006040517f1cf993f40000000000000000000000000000000000000000000000000000000081526004016109c4929190612e35565b60405180910390fd5b6109d78282611532565b5050565b6109ec6109e6611471565b826116cc565b610a2b576040517f08c379a0000000000000000000000000000000000000000000000000000000008152600401610a2290612ed0565b60405180910390fd5b610a36838383611761565b505050565b6060600a8281548110610a5157610a50612ef0565b5b906000526020600020018054610a6690612cdf565b80601f0160208091040260200160405190810160405280929190818152602001828054610a9290612cdf565b8015610adf5780601f10610ab457610100808354040283529160200191610adf565b820191906000526020600020905b815481529060010190602001808311610ac257829003601f168201915b50505050509050919050565b610af36119c8565b600047905060003373ffffffffffffffffffffffffffffffffffffffff1682604051610b1e90612f50565b60006040518083038185875af1925050503d8060008114610b5b576040519150601f19603f3d011682016040523d82523d6000602084013e610b60565b606091505b5050905080610b9b576040517fca7e25b700000000000000000000000000000000000000000000000000000000815260040160405180910390fd5b5050565b610bba8383836040518060200160405280600081525061112f565b505050565b610bc76123ac565b6040518060600160405280600a8152602001601e81526020016064815250905090565b6000806002600084815260200190815260200160002060009054906101000a900473ffffffffffffffffffffffffffffffffffffffff169050600073ffffffffffffffffffffffffffffffffffffffff168173ffffffffffffffffffffffffffffffffffffffff161415610c93576040517f08c379a0000000000000000000000000000000000000000000000000000000008152600401610c8a90612fb1565b60405180910390fd5b80915050919050565b6000600954905090565b60008073ffffffffffffffffffffffffffffffffffffffff168273ffffffffffffffffffffffffffffffffffffffff161415610d17576040517f08c379a0000000000000000000000000000000000000000000000000000000008152600401610d0e90613043565b60405180910390fd5b600360008373ffffffffffffffffffffffffffffffffffffffff1673ffffffffffffffffffffffffffffffffffffffff168152602001908152602001600020549050919050565b610d666119c8565b610d706000611a46565b565b6000600b54905090565b6000600760009054906101000a900473ffffffffffffffffffffffffffffffffffffffff16905090565b606060018054610db590612cdf565b80601f0160208091040260200160405190810160405280929190818152602001828054610de190612cdf565b8015610e2e5780601f10610e0357610100808354040283529160200191610e2e565b820191906000526020600020905b815481529060010190602001808311610e1157829003601f168201915b5050505050905090565b610e4a610e43611471565b8383611b0c565b5050565b60086020528060005260406000206000915054906101000a900473ffffffffffffffffffffffffffffffffffffffff1681565b600080600090506000610e92610bbf565b905060005b6003811015610f1557828510158015610ec65750818160038110610ebe57610ebd612ef0565b5b602002015185105b15610ee857806002811115610ede57610edd612aa6565b5b9350505050610f48565b818160038110610efb57610efa612ef0565b5b602002015192508080610f0d90613092565b915050610e97565b506040517f90efc53100000000000000000000000000000000000000000000000000000000815260040160405180910390fd5b919050565b6000600b54341015610f8b576040517fb90f491000000000000000000000000000000000000000000000000000000000815260040160405180910390fd5b7f000000000000000000000000000000000000000000000000000000000000000073ffffffffffffffffffffffffffffffffffffffff16635d3b1d307f00000000000000000000000000000000000000000000000000000000000000007f000000000000000000000000000000000000000000000000000000000000000060037f000000000000000000000000000000000000000000000000000000000000000060016040518663ffffffff1660e01b815260040161104e959493929190613153565b602060405180830381600087803b15801561106857600080fd5b505af115801561107c573d6000803e3d6000fd5b505050506040513d601f19601f820116820180604052508101906110a091906131bb565b9050336008600083815260200190815260200160002060006101000a81548173ffffffffffffffffffffffffffffffffffffffff021916908373ffffffffffffffffffffffffffffffffffffffff160217905550807ff873236e6cc0ecc5be1a9a35c95ee5b8d1ac4cc7bfef0cc5060391d6cc98e26b33604051611124919061269f565b60405180910390a290565b61114061113a611471565b836116cc565b61117f576040517f08c379a000000000000000000000000000000000000000000000000000000000815260040161117690612ed0565b60405180910390fd5b61118b84848484611c79565b50505050565b606061119c82611426565b60006006600084815260200190815260200160002080546111bc90612cdf565b80601f01602080910402602001604051908101604052809291908181526020018280546111e890612cdf565b80156112355780601f1061120a57610100808354040283529160200191611235565b820191906000526020600020905b81548152906001019060200180831161121857829003601f168201915b505050505090506000611246611cd5565b905060008151141561125c57819250505061129f565b600082511115611291578082604051602001611279929190613224565b6040516020818303038152906040529250505061129f565b61129a84611cec565b925050505b919050565b6000600560008473ffffffffffffffffffffffffffffffffffffffff1673ffffffffffffffffffffffffffffffffffffffff16815260200190815260200160002060008373ffffffffffffffffffffffffffffffffffffffff1673ffffffffffffffffffffffffffffffffffffffff16815260200190815260200160002060009054906101000a900460ff16905092915050565b6113406119c8565b600073ffffffffffffffffffffffffffffffffffffffff168173ffffffffffffffffffffffffffffffffffffffff1614156113b0576040517f08c379a00000000000000000000000000000000000000000000000000000000081526004016113a7906132ba565b60405180910390fd5b6113b981611a46565b50565b60007f01ffc9a7000000000000000000000000000000000000000000000000000000007bffffffffffffffffffffffffffffffffffffffffffffffffffffffff1916827bffffffffffffffffffffffffffffffffffffffffffffffffffffffff1916149050919050565b61142f81611d54565b61146e576040517f08c379a000000000000000000000000000000000000000000000000000000000815260040161146590612fb1565b60405180910390fd5b50565b600033905090565b816004600083815260200190815260200160002060006101000a81548173ffffffffffffffffffffffffffffffffffffffff021916908373ffffffffffffffffffffffffffffffffffffffff160217905550808273ffffffffffffffffffffffffffffffffffffffff166114ec83610bea565b73ffffffffffffffffffffffffffffffffffffffff167f8c5be1e5ebec7d5bd14f71427d1e84f3dd0314c0f7b2291e5b200ac8c7c3b92560405160405180910390a45050565b60006008600084815260200190815260200160002060009054906101000a900473ffffffffffffffffffffffffffffffffffffffff16905060006009549050600160095461158091906132da565b600981905550600060648460008151811061159e5761159d612ef0565b5b60200260200101516115b0919061335f565b905060006115bd82610e81565b90506115c98484611dc0565b61168b83600a8360028111156115e2576115e1612aa6565b5b815481106115f3576115f2612ef0565b5b90600052602060002001805461160890612cdf565b80601f016020809104026020016040519081016040528092919081815260200182805461163490612cdf565b80156116815780601f1061165657610100808354040283529160200191611681565b820191906000526020600020905b81548152906001019060200180831161166457829003601f168201915b5050505050611dde565b7f8a269f26b688e110e9cbd887d163dab35cae678fa353a0292de532c0cac1ecdc81856040516116bc929190613390565b60405180910390a1505050505050565b6000806116d883610bea565b90508073ffffffffffffffffffffffffffffffffffffffff168473ffffffffffffffffffffffffffffffffffffffff16148061171a575061171981856112a4565b5b8061175857508373ffffffffffffffffffffffffffffffffffffffff16611740846107b7565b73ffffffffffffffffffffffffffffffffffffffff16145b91505092915050565b8273ffffffffffffffffffffffffffffffffffffffff1661178182610bea565b73ffffffffffffffffffffffffffffffffffffffff16146117d7576040517f08c379a00000000000000000000000000000000000000000000000000000000081526004016117ce9061342b565b60405180910390fd5b600073ffffffffffffffffffffffffffffffffffffffff168273ffffffffffffffffffffffffffffffffffffffff161415611847576040517f08c379a000000000000000000000000000000000000000000000000000000000815260040161183e906134bd565b60405180910390fd5b611852838383611e52565b61185d600082611479565b6001600360008573ffffffffffffffffffffffffffffffffffffffff1673ffffffffffffffffffffffffffffffffffffffff16815260200190815260200160002060008282546118ad91906134dd565b925050819055506001600360008473ffffffffffffffffffffffffffffffffffffffff1673ffffffffffffffffffffffffffffffffffffffff168152602001908152602001600020600082825461190491906132da565b92505081905550816002600083815260200190815260200160002060006101000a81548173ffffffffffffffffffffffffffffffffffffffff021916908373ffffffffffffffffffffffffffffffffffffffff160217905550808273ffffffffffffffffffffffffffffffffffffffff168473ffffffffffffffffffffffffffffffffffffffff167fddf252ad1be2c89b69c2b068fc378daa952ba7f163c4a11628f55a4df523b3ef60405160405180910390a46119c3838383611e57565b505050565b6119d0611471565b73ffffffffffffffffffffffffffffffffffffffff166119ee610d7c565b73ffffffffffffffffffffffffffffffffffffffff1614611a44576040517f08c379a0000000000000000000000000000000000000000000000000000000008152600401611a3b9061355d565b60405180910390fd5b565b6000600760009054906101000a900473ffffffffffffffffffffffffffffffffffffffff16905081600760006101000a81548173ffffffffffffffffffffffffffffffffffffffff021916908373ffffffffffffffffffffffffffffffffffffffff1602179055508173ffffffffffffffffffffffffffffffffffffffff168173ffffffffffffffffffffffffffffffffffffffff167f8be0079c531659141344cd1fd0a4f28419497f9722a3daafe3b4186f6b6457e060405160405180910390a35050565b8173ffffffffffffffffffffffffffffffffffffffff168373ffffffffffffffffffffffffffffffffffffffff161415611b7b576040517f08c379a0000000000000000000000000000000000000000000000000000000008152600401611b72906135c9565b60405180910390fd5b80600560008573ffffffffffffffffffffffffffffffffffffffff1673ffffffffffffffffffffffffffffffffffffffff16815260200190815260200160002060008473ffffffffffffffffffffffffffffffffffffffff1673ffffffffffffffffffffffffffffffffffffffff16815260200190815260200160002060006101000a81548160ff0219169083151502179055508173ffffffffffffffffffffffffffffffffffffffff168373ffffffffffffffffffffffffffffffffffffffff167f17307eab39ab6107e8899845ad3d59bd9653f200f220920489ca2b5937696c3183604051611c6c9190612525565b60405180910390a3505050565b611c84848484611761565b611c9084848484611e5c565b611ccf576040517f08c379a0000000000000000000000000000000000000000000000000000000008152600401611cc69061365b565b60405180910390fd5b50505050565b606060405180602001604052806000815250905090565b6060611cf782611426565b6000611d01611cd5565b90506000815111611d215760405180602001604052806000815250611d4c565b80611d2b84611ff3565b604051602001611d3c929190613224565b6040516020818303038152906040525b915050919050565b60008073ffffffffffffffffffffffffffffffffffffffff166002600084815260200190815260200160002060009054906101000a900473ffffffffffffffffffffffffffffffffffffffff1673ffffffffffffffffffffffffffffffffffffffff1614159050919050565b611dda828260405180602001604052806000815250612154565b5050565b611de782611d54565b611e26576040517f08c379a0000000000000000000000000000000000000000000000000000000008152600401611e1d906136ed565b60405180910390fd5b80600660008481526020019081526020016000209080519060200190611e4d9291906123ce565b505050565b505050565b505050565b6000611e7d8473ffffffffffffffffffffffffffffffffffffffff166121af565b15611fe6578373ffffffffffffffffffffffffffffffffffffffff1663150b7a02611ea6611471565b8786866040518563ffffffff1660e01b8152600401611ec89493929190613762565b602060405180830381600087803b158015611ee257600080fd5b505af1925050508015611f1357506040513d601f19601f82011682018060405250810190611f1091906137c3565b60015b611f96573d8060008114611f43576040519150601f19603f3d011682016040523d82523d6000602084013e611f48565b606091505b50600081511415611f8e576040517f08c379a0000000000000000000000000000000000000000000000000000000008152600401611f859061365b565b60405180910390fd5b805181602001fd5b63150b7a0260e01b7bffffffffffffffffffffffffffffffffffffffffffffffffffffffff1916817bffffffffffffffffffffffffffffffffffffffffffffffffffffffff191614915050611feb565b600190505b949350505050565b6060600082141561203b576040518060400160405280600181526020017f3000000000000000000000000000000000000000000000000000000000000000815250905061214f565b600082905060005b6000821461206d57808061205690613092565b915050600a8261206691906137f0565b9150612043565b60008167ffffffffffffffff81111561208957612088612755565b5b6040519080825280601f01601f1916602001820160405280156120bb5781602001600182028036833780820191505090505b5090505b60008514612148576001826120d491906134dd565b9150600a856120e3919061335f565b60306120ef91906132da565b60f81b81838151811061210557612104612ef0565b5b60200101907effffffffffffffffffffffffffffffffffffffffffffffffffffffffffffff1916908160001a905350600a8561214191906137f0565b94506120bf565b8093505050505b919050565b61215e83836121d2565b61216b6000848484611e5c565b6121aa576040517f08c379a00000000000000000000000000000000000000000000000000000000081526004016121a19061365b565b60405180910390fd5b505050565b6000808273ffffffffffffffffffffffffffffffffffffffff163b119050919050565b600073ffffffffffffffffffffffffffffffffffffffff168273ffffffffffffffffffffffffffffffffffffffff161415612242576040517f08c379a00000000000000000000000000000000000000000000000000000000081526004016122399061386d565b60405180910390fd5b61224b81611d54565b1561228b576040517f08c379a0000000000000000000000000000000000000000000000000000000008152600401612282906138d9565b60405180910390fd5b61229760008383611e52565b6001600360008473ffffffffffffffffffffffffffffffffffffffff1673ffffffffffffffffffffffffffffffffffffffff16815260200190815260200160002060008282546122e791906132da565b92505081905550816002600083815260200190815260200160002060006101000a81548173ffffffffffffffffffffffffffffffffffffffff021916908373ffffffffffffffffffffffffffffffffffffffff160217905550808273ffffffffffffffffffffffffffffffffffffffff16600073ffffffffffffffffffffffffffffffffffffffff167fddf252ad1be2c89b69c2b068fc378daa952ba7f163c4a11628f55a4df523b3ef60405160405180910390a46123a860008383611e57565b5050565b6040518060600160405280600390602082028036833780820191505090505090565b8280546123da90612cdf565b90600052602060002090601f0160209004810192826123fc5760008555612443565b82601f1061241557805160ff1916838001178555612443565b82800160010185558215612443579182015b82811115612442578251825591602001919060010190612427565b5b5090506124509190612454565b5090565b5b8082111561246d576000816000905550600101612455565b5090565b6000604051905090565b600080fd5b600080fd5b60007fffffffff0000000000000000000000000000000000000000000000000000000082169050919050565b6124ba81612485565b81146124c557600080fd5b50565b6000813590506124d7816124b1565b92915050565b6000602082840312156124f3576124f261247b565b5b6000612501848285016124c8565b91505092915050565b60008115159050919050565b61251f8161250a565b82525050565b600060208201905061253a6000830184612516565b92915050565b600081519050919050565b600082825260208201905092915050565b60005b8381101561257a57808201518184015260208101905061255f565b83811115612589576000848401525b50505050565b6000601f19601f8301169050919050565b60006125ab82612540565b6125b5818561254b565b93506125c581856020860161255c565b6125ce8161258f565b840191505092915050565b600060208201905081810360008301526125f381846125a0565b905092915050565b6000819050919050565b61260e816125fb565b811461261957600080fd5b50565b60008135905061262b81612605565b92915050565b6000602082840312156126475761264661247b565b5b60006126558482850161261c565b91505092915050565b600073ffffffffffffffffffffffffffffffffffffffff82169050919050565b60006126898261265e565b9050919050565b6126998161267e565b82525050565b60006020820190506126b46000830184612690565b92915050565b6126c38161267e565b81146126ce57600080fd5b50565b6000813590506126e0816126ba565b92915050565b600080604083850312156126fd576126fc61247b565b5b600061270b858286016126d1565b925050602061271c8582860161261c565b9150509250929050565b61272f816125fb565b82525050565b600060208201905061274a6000830184612726565b92915050565b600080fd5b7f4e487b7100000000000000000000000000000000000000000000000000000000600052604160045260246000fd5b61278d8261258f565b810181811067ffffffffffffffff821117156127ac576127ab612755565b5b80604052505050565b60006127bf612471565b90506127cb8282612784565b919050565b600067ffffffffffffffff8211156127eb576127ea612755565b5b602082029050602081019050919050565b600080fd5b600061281461280f846127d0565b6127b5565b90508083825260208201905060208402830185811115612837576128366127fc565b5b835b81811015612860578061284c888261261c565b845260208401935050602081019050612839565b5050509392505050565b600082601f83011261287f5761287e612750565b5b813561288f848260208601612801565b91505092915050565b600080604083850312156128af576128ae61247b565b5b60006128bd8582860161261c565b925050602083013567ffffffffffffffff8111156128de576128dd612480565b5b6128ea8582860161286a565b9150509250929050565b60008060006060848603121561290d5761290c61247b565b5b600061291b868287016126d1565b935050602061292c868287016126d1565b925050604061293d8682870161261c565b9150509250925092565b600060039050919050565b600081905092915050565b6000819050919050565b612970816125fb565b82525050565b60006129828383612967565b60208301905092915050565b6000602082019050919050565b6129a481612947565b6129ae8184612952565b92506129b98261295d565b8060005b838110156129ea5781516129d18782612976565b96506129dc8361298e565b9250506001810190506129bd565b505050505050565b6000606082019050612a07600083018461299b565b92915050565b600060208284031215612a2357612a2261247b565b5b6000612a31848285016126d1565b91505092915050565b612a438161250a565b8114612a4e57600080fd5b50565b600081359050612a6081612a3a565b92915050565b60008060408385031215612a7d57612a7c61247b565b5b6000612a8b858286016126d1565b9250506020612a9c85828601612a51565b9150509250929050565b7f4e487b7100000000000000000000000000000000000000000000000000000000600052602160045260246000fd5b60038110612ae657612ae5612aa6565b5b50565b6000819050612af782612ad5565b919050565b6000612b0782612ae9565b9050919050565b612b1781612afc565b82525050565b6000602082019050612b326000830184612b0e565b92915050565b600080fd5b600067ffffffffffffffff821115612b5857612b57612755565b5b612b618261258f565b9050602081019050919050565b82818337600083830152505050565b6000612b90612b8b84612b3d565b6127b5565b905082815260208101848484011115612bac57612bab612b38565b5b612bb7848285612b6e565b509392505050565b600082601f830112612bd457612bd3612750565b5b8135612be4848260208601612b7d565b91505092915050565b60008060008060808587031215612c0757612c0661247b565b5b6000612c15878288016126d1565b9450506020612c26878288016126d1565b9350506040612c378782880161261c565b925050606085013567ffffffffffffffff811115612c5857612c57612480565b5b612c6487828801612bbf565b91505092959194509250565b60008060408385031215612c8757612c8661247b565b5b6000612c95858286016126d1565b9250506020612ca6858286016126d1565b9150509250929050565b7f4e487b7100000000000000000000000000000000000000000000000000000000600052602260045260246000fd5b60006002820490506001821680612cf757607f821691505b60208210811415612d0b57612d0a612cb0565b5b50919050565b7f4552433732313a20617070726f76616c20746f2063757272656e74206f776e6560008201527f7200000000000000000000000000000000000000000000000000000000000000602082015250565b6000612d6d60218361254b565b9150612d7882612d11565b604082019050919050565b60006020820190508181036000830152612d9c81612d60565b9050919050565b7f4552433732313a20617070726f76652063616c6c6572206973206e6f7420746f60008201527f6b656e206f776e6572206e6f7220617070726f76656420666f7220616c6c0000602082015250565b6000612dff603e8361254b565b9150612e0a82612da3565b604082019050919050565b60006020820190508181036000830152612e2e81612df2565b9050919050565b6000604082019050612e4a6000830185612690565b612e576020830184612690565b9392505050565b7f4552433732313a2063616c6c6572206973206e6f7420746f6b656e206f776e6560008201527f72206e6f7220617070726f766564000000000000000000000000000000000000602082015250565b6000612eba602e8361254b565b9150612ec582612e5e565b604082019050919050565b60006020820190508181036000830152612ee981612ead565b9050919050565b7f4e487b7100000000000000000000000000000000000000000000000000000000600052603260045260246000fd5b600081905092915050565b50565b6000612f3a600083612f1f565b9150612f4582612f2a565b600082019050919050565b6000612f5b82612f2d565b9150819050919050565b7f4552433732313a20696e76616c696420746f6b656e2049440000000000000000600082015250565b6000612f9b60188361254b565b9150612fa682612f65565b602082019050919050565b60006020820190508181036000830152612fca81612f8e565b9050919050565b7f4552433732313a2061646472657373207a65726f206973206e6f74206120766160008201527f6c6964206f776e65720000000000000000000000000000000000000000000000602082015250565b600061302d60298361254b565b915061303882612fd1565b604082019050919050565b6000602082019050818103600083015261305c81613020565b9050919050565b7f4e487b7100000000000000000000000000000000000000000000000000000000600052601160045260246000fd5b600061309d826125fb565b91507fffffffffffffffffffffffffffffffffffffffffffffffffffffffffffffffff8214156130d0576130cf613063565b5b600182019050919050565b6000819050919050565b6130ee816130db565b82525050565b600067ffffffffffffffff82169050919050565b613111816130f4565b82525050565b600061ffff82169050919050565b61312e81613117565b82525050565b600063ffffffff82169050919050565b61314d81613134565b82525050565b600060a08201905061316860008301886130e5565b6131756020830187613108565b6131826040830186613125565b61318f6060830185613144565b61319c6080830184613144565b9695505050505050565b6000815190506131b581612605565b92915050565b6000602082840312156131d1576131d061247b565b5b60006131df848285016131a6565b91505092915050565b600081905092915050565b60006131fe82612540565b61320881856131e8565b935061321881856020860161255c565b80840191505092915050565b600061323082856131f3565b915061323c82846131f3565b91508190509392505050565b7f4f776e61626c653a206e6577206f776e657220697320746865207a65726f206160008201527f6464726573730000000000000000000000000000000000000000000000000000602082015250565b60006132a460268361254b565b91506132af82613248565b604082019050919050565b600060208201905081810360008301526132d381613297565b9050919050565b60006132e5826125fb565b91506132f0836125fb565b9250827fffffffffffffffffffffffffffffffffffffffffffffffffffffffffffffffff0382111561332557613324613063565b5b828201905092915050565b7f4e487b7100000000000000000000000000000000000000000000000000000000600052601260045260246000fd5b600061336a826125fb565b9150613375836125fb565b92508261338557613384613330565b5b828206905092915050565b60006040820190506133a56000830185612b0e565b6133b26020830184612690565b9392505050565b7f4552433732313a207472616e736665722066726f6d20696e636f72726563742060008201527f6f776e6572000000000000000000000000000000000000000000000000000000602082015250565b600061341560258361254b565b9150613420826133b9565b604082019050919050565b6000602082019050818103600083015261344481613408565b9050919050565b7f4552433732313a207472616e7366657220746f20746865207a65726f2061646460008201527f7265737300000000000000000000000000000000000000000000000000000000602082015250565b60006134a760248361254b565b91506134b28261344b565b604082019050919050565b600060208201905081810360008301526134d68161349a565b9050919050565b60006134e8826125fb565b91506134f3836125fb565b92508282101561350657613505613063565b5b828203905092915050565b7f4f776e61626c653a2063616c6c6572206973206e6f7420746865206f776e6572600082015250565b600061354760208361254b565b915061355282613511565b602082019050919050565b600060208201905081810360008301526135768161353a565b9050919050565b7f4552433732313a20617070726f766520746f2063616c6c657200000000000000600082015250565b60006135b360198361254b565b91506135be8261357d565b602082019050919050565b600060208201905081810360008301526135e2816135a6565b9050919050565b7f4552433732313a207472616e7366657220746f206e6f6e20455243373231526560008201527f63656976657220696d706c656d656e7465720000000000000000000000000000602082015250565b600061364560328361254b565b9150613650826135e9565b604082019050919050565b6000602082019050818103600083015261367481613638565b9050919050565b7f45524337323155524953746f726167653a2055524920736574206f66206e6f6e60008201527f6578697374656e7420746f6b656e000000000000000000000000000000000000602082015250565b60006136d7602e8361254b565b91506136e28261367b565b604082019050919050565b60006020820190508181036000830152613706816136ca565b9050919050565b600081519050919050565b600082825260208201905092915050565b60006137348261370d565b61373e8185613718565b935061374e81856020860161255c565b6137578161258f565b840191505092915050565b60006080820190506137776000830187612690565b6137846020830186612690565b6137916040830185612726565b81810360608301526137a38184613729565b905095945050505050565b6000815190506137bd816124b1565b92915050565b6000602082840312156137d9576137d861247b565b5b60006137e7848285016137ae565b91505092915050565b60006137fb826125fb565b9150613806836125fb565b92508261381657613815613330565b5b828204905092915050565b7f4552433732313a206d696e7420746f20746865207a65726f2061646472657373600082015250565b600061385760208361254b565b915061386282613821565b602082019050919050565b600060208201905081810360008301526138868161384a565b9050919050565b7f4552433732313a20746f6b656e20616c7265616479206d696e74656400000000600082015250565b60006138c3601c8361254b565b91506138ce8261388d565b602082019050919050565b600060208201905081810360008301526138f2816138b6565b905091905056fea264697066735822122077599c602818de4d2d944f29b2e9fb26cdcefe120ebf36f95c6234e8b6a1ee1a64736f6c63430008080033",
  "devdoc": {
    "kind": "dev",
    "methods": {
      "approve(address,uint256)": {
        "details": "See {IERC721-approve}."
      },
      "balanceOf(address)": {
        "details": "See {IERC721-balanceOf}."
      },
      "getApproved(uint256)": {
        "details": "See {IERC721-getApproved}."
      },
      "isApprovedForAll(address,address)": {
        "details": "See {IERC721-isApprovedForAll}."
      },
      "name()": {
        "details": "See {IERC721Metadata-name}."
      },
      "owner()": {
        "details": "Returns the address of the current owner."
      },
      "ownerOf(uint256)": {
        "details": "See {IERC721-ownerOf}."
      },
      "renounceOwnership()": {
        "details": "Leaves the contract without owner. It will not be possible to call `onlyOwner` functions anymore. Can only be called by the current owner. NOTE: Renouncing ownership will leave the contract without an owner, thereby removing any functionality that is only available to the owner."
      },
      "safeTransferFrom(address,address,uint256)": {
        "details": "See {IERC721-safeTransferFrom}."
      },
      "safeTransferFrom(address,address,uint256,bytes)": {
        "details": "See {IERC721-safeTransferFrom}."
      },
      "setApprovalForAll(address,bool)": {
        "details": "See {IERC721-setApprovalForAll}."
      },
      "supportsInterface(bytes4)": {
        "details": "See {IERC165-supportsInterface}."
      },
      "symbol()": {
        "details": "See {IERC721Metadata-symbol}."
      },
      "tokenURI(uint256)": {
        "details": "See {IERC721Metadata-tokenURI}."
      },
      "transferFrom(address,address,uint256)": {
        "details": "See {IERC721-transferFrom}."
      },
      "transferOwnership(address)": {
        "details": "Transfers ownership of the contract to a new account (`newOwner`). Can only be called by the current owner."
      }
    },
    "version": 1
  },
  "userdoc": {
    "kind": "user",
    "methods": {},
    "version": 1
  },
  "storageLayout": {
    "storage": [
      {
        "astId": 1005,
        "contract": "contracts/RandomIpfsNft.sol:RandomIpfsNft",
        "label": "_name",
        "offset": 0,
        "slot": "0",
        "type": "t_string_storage"
      },
      {
        "astId": 1007,
        "contract": "contracts/RandomIpfsNft.sol:RandomIpfsNft",
        "label": "_symbol",
        "offset": 0,
        "slot": "1",
        "type": "t_string_storage"
      },
      {
        "astId": 1011,
        "contract": "contracts/RandomIpfsNft.sol:RandomIpfsNft",
        "label": "_owners",
        "offset": 0,
        "slot": "2",
        "type": "t_mapping(t_uint256,t_address)"
      },
      {
        "astId": 1015,
        "contract": "contracts/RandomIpfsNft.sol:RandomIpfsNft",
        "label": "_balances",
        "offset": 0,
        "slot": "3",
        "type": "t_mapping(t_address,t_uint256)"
      },
      {
        "astId": 1019,
        "contract": "contracts/RandomIpfsNft.sol:RandomIpfsNft",
        "label": "_tokenApprovals",
        "offset": 0,
        "slot": "4",
        "type": "t_mapping(t_uint256,t_address)"
      },
      {
        "astId": 1025,
        "contract": "contracts/RandomIpfsNft.sol:RandomIpfsNft",
        "label": "_operatorApprovals",
        "offset": 0,
        "slot": "5",
        "type": "t_mapping(t_address,t_mapping(t_address,t_bool))"
      },
      {
        "astId": 1993,
        "contract": "contracts/RandomIpfsNft.sol:RandomIpfsNft",
        "label": "_tokenURIs",
        "offset": 0,
        "slot": "6",
        "type": "t_mapping(t_uint256,t_string_storage)"
      },
      {
        "astId": 874,
        "contract": "contracts/RandomIpfsNft.sol:RandomIpfsNft",
        "label": "_owner",
        "offset": 0,
        "slot": "7",
        "type": "t_address"
      },
      {
        "astId": 3132,
        "contract": "contracts/RandomIpfsNft.sol:RandomIpfsNft",
        "label": "s_requestIdToSender",
        "offset": 0,
        "slot": "8",
        "type": "t_mapping(t_uint256,t_address)"
      },
      {
        "astId": 3134,
        "contract": "contracts/RandomIpfsNft.sol:RandomIpfsNft",
        "label": "s_tokenCounter",
        "offset": 0,
        "slot": "9",
        "type": "t_uint256"
      },
      {
        "astId": 3140,
        "contract": "contracts/RandomIpfsNft.sol:RandomIpfsNft",
        "label": "s_dogTokenUris",
        "offset": 0,
        "slot": "10",
        "type": "t_array(t_string_storage)dyn_storage"
      },
      {
        "astId": 3142,
        "contract": "contracts/RandomIpfsNft.sol:RandomIpfsNft",
        "label": "i_mintFee",
        "offset": 0,
        "slot": "11",
        "type": "t_uint256"
      }
    ],
    "types": {
      "t_address": {
        "encoding": "inplace",
        "label": "address",
        "numberOfBytes": "20"
      },
      "t_array(t_string_storage)dyn_storage": {
        "base": "t_string_storage",
        "encoding": "dynamic_array",
        "label": "string[]",
        "numberOfBytes": "32"
      },
      "t_bool": {
        "encoding": "inplace",
        "label": "bool",
        "numberOfBytes": "1"
      },
      "t_mapping(t_address,t_bool)": {
        "encoding": "mapping",
        "key": "t_address",
        "label": "mapping(address => bool)",
        "numberOfBytes": "32",
        "value": "t_bool"
      },
      "t_mapping(t_address,t_mapping(t_address,t_bool))": {
        "encoding": "mapping",
        "key": "t_address",
        "label": "mapping(address => mapping(address => bool))",
        "numberOfBytes": "32",
        "value": "t_mapping(t_address,t_bool)"
      },
      "t_mapping(t_address,t_uint256)": {
        "encoding": "mapping",
        "key": "t_address",
        "label": "mapping(address => uint256)",
        "numberOfBytes": "32",
        "value": "t_uint256"
      },
      "t_mapping(t_uint256,t_address)": {
        "encoding": "mapping",
        "key": "t_uint256",
        "label": "mapping(uint256 => address)",
        "numberOfBytes": "32",
        "value": "t_address"
      },
      "t_mapping(t_uint256,t_string_storage)": {
        "encoding": "mapping",
        "key": "t_uint256",
        "label": "mapping(uint256 => string)",
        "numberOfBytes": "32",
        "value": "t_string_storage"
      },
      "t_string_storage": {
        "encoding": "bytes",
        "label": "string",
        "numberOfBytes": "32"
      },
      "t_uint256": {
        "encoding": "inplace",
        "label": "uint256",
        "numberOfBytes": "32"
      }
    }
  }
}